{
  "contractName": "Faucet",
  "abi": [
    {
      "constant": true,
      "inputs": [],
      "name": "START_BLOCK",
      "outputs": [
        {
          "name": "",
          "type": "uint256"
        }
      ],
      "payable": false,
      "stateMutability": "view",
      "type": "function"
    },
    {
      "constant": true,
      "inputs": [],
      "name": "humanity",
      "outputs": [
        {
          "name": "",
          "type": "address"
        }
      ],
      "payable": false,
      "stateMutability": "view",
      "type": "function"
    },
    {
      "constant": true,
      "inputs": [],
      "name": "auction",
      "outputs": [
        {
          "name": "",
          "type": "address"
        }
      ],
      "payable": false,
      "stateMutability": "view",
      "type": "function"
    },
    {
      "constant": true,
      "inputs": [],
      "name": "BLOCK_REWARD",
      "outputs": [
        {
          "name": "",
          "type": "uint256"
        }
      ],
      "payable": false,
      "stateMutability": "view",
      "type": "function"
    },
    {
      "constant": true,
      "inputs": [],
      "name": "lastMined",
      "outputs": [
        {
          "name": "",
          "type": "uint256"
        }
      ],
      "payable": false,
      "stateMutability": "view",
      "type": "function"
    },
    {
      "constant": true,
      "inputs": [],
      "name": "END_BLOCK",
      "outputs": [
        {
          "name": "",
          "type": "uint256"
        }
      ],
      "payable": false,
      "stateMutability": "view",
      "type": "function"
    },
    {
      "inputs": [
        {
          "name": "_humanity",
          "type": "address"
        },
        {
          "name": "_auction",
          "type": "address"
        }
      ],
      "payable": false,
      "stateMutability": "nonpayable",
      "type": "constructor"
    },
    {
      "constant": false,
      "inputs": [],
      "name": "mine",
      "outputs": [],
      "payable": false,
      "stateMutability": "nonpayable",
      "type": "function"
    }
  ],
  "bytecode": "0x60806040524360005543624c4b40016001554360045534801561002157600080fd5b506040516040806105a883398101806040526100409190810190610090565b60028054600160a060020a03938416600160a060020a031991821617909155600380549290931691161790556100f2565b600061007d82516100ca565b9392505050565b600061007d82516100db565b600080604083850312156100a357600080fd5b60006100af8585610084565b92505060206100c085828601610071565b9150509250929050565b60006100d5826100e6565b92915050565b60006100d5826100ca565b600160a060020a031690565b6104a7806101016000396000f3fe608060405234801561001057600080fd5b506004361061009a576000357c0100000000000000000000000000000000000000000000000000000000900480637f05b9ef116100785780637f05b9ef146100e757806399f4b251146100ef578063b5afac5d146100f9578063cd3ec1d6146101015761009a565b806339b3e8261461009f57806349f81a20146100bd5780637d9f6db5146100d2575b600080fd5b6100a7610109565b6040516100b49190610425565b60405180910390f35b6100c561010f565b6040516100b491906103f7565b6100da61012b565b6040516100b491906103ce565b6100a7610147565b6100f7610153565b005b6100a7610252565b6100a7610258565b60005481565b60025473ffffffffffffffffffffffffffffffffffffffff1681565b60035473ffffffffffffffffffffffffffffffffffffffff1681565b670de0b6b3a764000081565b6000600154431061016657600154610168565b435b90506000610199670de0b6b3a764000061018d6004548561025e90919063ffffffff16565b9063ffffffff6102ae16565b6002546003546040517fa9059cbb00000000000000000000000000000000000000000000000000000000815292935073ffffffffffffffffffffffffffffffffffffffff9182169263a9059cbb926101f792169085906004016103dc565b602060405180830381600087803b15801561021157600080fd5b505af1158015610225573d6000803e3d6000fd5b505050506040513d601f19601f820116820180604052506102499190810190610315565b50504360045550565b60045481565b60015481565b6000828211156102a3576040517f08c379a000000000000000000000000000000000000000000000000000000000815260040161029a90610415565b60405180910390fd5b508082035b92915050565b6000826102bd575060006102a8565b828202828482816102ca57fe5b0414610302576040517f08c379a000000000000000000000000000000000000000000000000000000000815260040161029a90610405565b9392505050565b6000610302825161045d565b60006020828403121561032757600080fd5b60006103338484610309565b949350505050565b6103448161043c565b82525050565b61034481610462565b6000610360601f83610433565b7f536166654d6174683a3a6d756c3a20496e7465676572206f766572666c6f7700815260200192915050565b6000610399602083610433565b7f536166654d6174683a3a7375623a20496e746567657220756e646572666c6f77815260200192915050565b6103448161045a565b602081016102a8828461033b565b604081016103ea828561033b565b61030260208301846103c5565b602081016102a8828461034a565b602080825281016102a881610353565b602080825281016102a88161038c565b602081016102a882846103c5565b90815260200190565b600073ffffffffffffffffffffffffffffffffffffffff82166102a8565b90565b151590565b60006102a88261043c56fea265627a7a7230582013c6d36f47f2156b99fcb448eeb31b4c9d4818e5a75dbce512549c60f2d7934a6c6578706572696d656e74616cf50037",
  "source": "pragma solidity 0.5.7;\npragma experimental ABIEncoderV2;\n\nimport { IERC20 } from \"openzeppelin-solidity/contracts/token/ERC20/IERC20.sol\";\nimport { SafeMath } from \"openzeppelin-solidity/contracts/math/SafeMath.sol\";\n\n/**\n * @title Faucet\n * @dev Mine Humanity tokens into Uniswap.\n */\ncontract Faucet {\n    using SafeMath for uint;\n\n    uint public constant BLOCK_REWARD = 1e18;\n    uint public START_BLOCK = block.number;\n    uint public END_BLOCK = block.number + 5000000;\n\n    IERC20 public humanity;\n    address public auction;\n\n    uint public lastMined = block.number;\n\n    constructor(IERC20 _humanity, address _auction) public {\n        humanity = _humanity;\n        auction = _auction;\n    }\n\n    function mine() public {\n        uint rewardBlock = block.number < END_BLOCK ? block.number : END_BLOCK;\n        uint reward = rewardBlock.sub(lastMined).mul(BLOCK_REWARD);\n        humanity.transfer(auction, reward);\n        lastMined = block.number;\n    }\n\n}",
  "sourcePath": "/Users/mykel/Developer/marble/humanity/contracts/Faucet.sol",
  "compiler": {
    "name": "solc",
    "version": "0.5.7+commit.6da8b019.Emscripten.clang"
  },
  "schemaVersion": "3.0.6",
  "updatedAt": "2019-05-24T19:50:59.196Z",
  "devdoc": {
    "details": "Mine Humanity tokens into Uniswap.",
    "methods": {},
    "title": "Faucet"
  },
  "userdoc": {
    "methods": {}
  }
}