{
  "contractName": "HumanityRegistry",
  "abi": [
    {
      "constant": true,
      "inputs": [],
      "name": "humanity",
      "outputs": [
        {
          "name": "",
          "type": "address"
        }
      ],
      "payable": false,
      "stateMutability": "view",
      "type": "function"
    },
    {
      "constant": true,
      "inputs": [],
      "name": "governance",
      "outputs": [
        {
          "name": "",
          "type": "address"
        }
      ],
      "payable": false,
      "stateMutability": "view",
      "type": "function"
    },
    {
      "constant": true,
      "inputs": [
        {
          "name": "",
          "type": "address"
        }
      ],
      "name": "humans",
      "outputs": [
        {
          "name": "",
          "type": "bool"
        }
      ],
      "payable": false,
      "stateMutability": "view",
      "type": "function"
    },
    {
      "inputs": [
        {
          "name": "_humanity",
          "type": "address"
        },
        {
          "name": "_governance",
          "type": "address"
        }
      ],
      "payable": false,
      "stateMutability": "nonpayable",
      "type": "constructor"
    },
    {
      "constant": false,
      "inputs": [
        {
          "name": "who",
          "type": "address"
        }
      ],
      "name": "add",
      "outputs": [],
      "payable": false,
      "stateMutability": "nonpayable",
      "type": "function"
    },
    {
      "constant": false,
      "inputs": [
        {
          "name": "who",
          "type": "address"
        }
      ],
      "name": "remove",
      "outputs": [],
      "payable": false,
      "stateMutability": "nonpayable",
      "type": "function"
    },
    {
      "constant": true,
      "inputs": [
        {
          "name": "who",
          "type": "address"
        }
      ],
      "name": "isHuman",
      "outputs": [
        {
          "name": "",
          "type": "bool"
        }
      ],
      "payable": false,
      "stateMutability": "view",
      "type": "function"
    }
  ],
  "bytecode": "0x608060405234801561001057600080fd5b50604051604080610898833981018060405261002f919081019061007f565b60018054600160a060020a03938416600160a060020a031991821617909155600280549290931691161790556100e1565b600061006c82516100b9565b9392505050565b600061006c82516100ca565b6000806040838503121561009257600080fd5b600061009e8585610073565b92505060206100af85828601610060565b9150509250929050565b60006100c4826100d5565b92915050565b60006100c4826100b9565b600160a060020a031690565b6107a8806100f06000396000f3fe608060405234801561001057600080fd5b506004361061007e577c010000000000000000000000000000000000000000000000000000000060003504630a3b0a4f811461008357806329092d0e1461009857806349f81a20146100ab5780635aa6e675146100c95780639a98ce27146100de578063f72c436f146100fe575b600080fd5b610096610091366004610504565b610111565b005b6100966100a6366004610504565b6101de565b6100b3610256565b6040516100c091906106f2565b60405180910390f35b6100d1610265565b6040516100c091906106b5565b6100f16100ec366004610504565b610274565b6040516100c091906106e4565b6100f161010c366004610504565b610289565b600254600160a060020a0316331461015e576040517f08c379a000000000000000000000000000000000000000000000000000000000815260040161015590610710565b60405180910390fd5b600160a060020a03811660009081526020819052604090205460ff16156101b1576040517f08c379a000000000000000000000000000000000000000000000000000000000815260040161015590610700565b6101ba816102a7565b600160a060020a03166000908152602081905260409020805460ff19166001179055565b600254600160a060020a03163314806101ff575033600160a060020a038216145b610235576040517f08c379a000000000000000000000000000000000000000000000000000000000815260040161015590610720565b600160a060020a03166000908152602081905260409020805460ff19169055565b600154600160a060020a031681565b600254600160a060020a031681565b60006020819052908152604090205460ff1681565b600160a060020a031660009081526020819052604090205460ff1690565b600154604080517f18160ddd0000000000000000000000000000000000000000000000000000000081529051600092600160a060020a0316916318160ddd916004808301926020929190829003018186803b15801561030557600080fd5b505afa158015610319573d6000803e3d6000fd5b505050506040513d601f19601f8201168201806040525061033d919081019061052a565b90506a17293b0a9e69fd9c0000008110156103de576001546040517f40c10f19000000000000000000000000000000000000000000000000000000008152600160a060020a03909116906340c10f19906103a790859069065a4da25d3016c00000906004016106c9565b600060405180830381600087803b1580156103c157600080fd5b505af11580156103d5573d6000803e3d6000fd5b505050506104e1565b6a260ce0ff28d2b2ee000000811015610446576001546040517f40c10f19000000000000000000000000000000000000000000000000000000008152600160a060020a03909116906340c10f19906103a790859069043c33c1937564800000906004016106c9565b6a52b7d2dcc80cd2e40000008110156104e1576001546040517f40c10f19000000000000000000000000000000000000000000000000000000008152600160a060020a03909116906340c10f19906104ae90859069014542ba12a337c00000906004016106c9565b600060405180830381600087803b1580156104c857600080fd5b505af11580156104dc573d6000803e3d6000fd5b505050505b5050565b60006104f18235610739565b9392505050565b60006104f18251610755565b60006020828403121561051657600080fd5b600061052284846104e5565b949350505050565b60006020828403121561053c57600080fd5b600061052284846104f8565b61055181610739565b82525050565b61055181610744565b61055181610758565b61055181610763565b600061057f603983610730565b7f48756d616e69747952656769737472793a3a6164643a2041646472657373206981527f7320616c7265616479206f6e2074686520726567697374727900000000000000602082015260400192915050565b60006105de603a83610730565b7f48756d616e69747952656769737472793a3a6164643a204f6e6c7920676f766581527f726e616e63652063616e2061646420616e206964656e74697479000000000000602082015260400192915050565b600061063d605683610730565b7f48756d616e69747952656769737472793a3a72656d6f76653a204f6e6c79206781527f6f7665726e616e6365206f7220746865206964656e74697479206f776e65722060208201527f63616e2072656d6f766520616e206964656e7469747900000000000000000000604082015260600192915050565b602081016106c38284610548565b92915050565b604081016106d78285610548565b6104f16020830184610569565b602081016106c38284610557565b602081016106c38284610560565b602080825281016106c381610572565b602080825281016106c3816105d1565b602080825281016106c381610630565b90815260200190565b60006106c382610749565b151590565b600160a060020a031690565b90565b60006106c382610739565b60006106c38261075556fea265627a7a72305820d03c7fde78520e7008f86f3c10fc4c66c642c3b7d28caa3e3b3c55d46afe95d96c6578706572696d656e74616cf50037",
  "source": "pragma solidity 0.5.7;\npragma experimental ABIEncoderV2;\n\nimport { IHumanity } from \"./interface/IHumanity.sol\";\n\n/**\n * @title HumanityRegistry\n * @dev A list of Ethereum addresses that belong to unique humans as determined by Humanity governance.\n */\ncontract HumanityRegistry {\n\n    mapping (address => bool) public humans;\n\n    IHumanity public humanity;\n    address public governance;\n\n    constructor(IHumanity _humanity, address _governance) public {\n        humanity = _humanity;\n        governance = _governance;\n    }\n\n    function add(address who) public {\n        require(msg.sender == governance, \"HumanityRegistry::add: Only governance can add an identity\");\n        require(humans[who] == false, \"HumanityRegistry::add: Address is already on the registry\");\n\n        _reward(who);\n        humans[who] = true;\n    }\n\n    function remove(address who) public {\n        require(\n            msg.sender == governance || msg.sender == who,\n            \"HumanityRegistry::remove: Only governance or the identity owner can remove an identity\"\n        );\n        delete humans[who];\n    }\n\n    function isHuman(address who) public view returns (bool) {\n        return humans[who];\n    }\n\n    function _reward(address who) internal {\n        uint totalSupply = humanity.totalSupply();\n\n        if (totalSupply < 28000000e18) {\n            humanity.mint(who, 30000e18); // 1 - 100\n        } else if (totalSupply < 46000000e18) {\n            humanity.mint(who, 20000e18); // 101 - 1000\n        } else if (totalSupply < 100000000e18) {\n            humanity.mint(who, 6000e18); // 1001 - 10000\n        }\n\n    }\n\n}",
  "sourcePath": "/Users/mykel/Developer/marble/humanity/contracts/HumanityRegistry.sol",
  "compiler": {
    "name": "solc",
    "version": "0.5.7+commit.6da8b019.Emscripten.clang"
  },
  "schemaVersion": "3.0.6",
  "updatedAt": "2019-05-24T19:50:59.202Z",
  "devdoc": {
    "details": "A list of Ethereum addresses that belong to unique humans as determined by Humanity governance.",
    "methods": {},
    "title": "HumanityRegistry"
  },
  "userdoc": {
    "methods": {}
  }
}