{
  "contractName": "HumanityApplicant",
  "abi": [
    {
      "constant": true,
      "inputs": [],
      "name": "humanity",
      "outputs": [
        {
          "name": "",
          "type": "address"
        }
      ],
      "payable": false,
      "stateMutability": "view",
      "type": "function"
    },
    {
      "constant": true,
      "inputs": [],
      "name": "governance",
      "outputs": [
        {
          "name": "",
          "type": "address"
        }
      ],
      "payable": false,
      "stateMutability": "view",
      "type": "function"
    },
    {
      "constant": true,
      "inputs": [],
      "name": "registry",
      "outputs": [
        {
          "name": "",
          "type": "address"
        }
      ],
      "payable": false,
      "stateMutability": "view",
      "type": "function"
    },
    {
      "inputs": [
        {
          "name": "_governance",
          "type": "address"
        },
        {
          "name": "_registry",
          "type": "address"
        },
        {
          "name": "_humanity",
          "type": "address"
        }
      ],
      "payable": false,
      "stateMutability": "nonpayable",
      "type": "constructor"
    },
    {
      "constant": false,
      "inputs": [
        {
          "name": "who",
          "type": "address"
        }
      ],
      "name": "applyFor",
      "outputs": [
        {
          "name": "",
          "type": "uint256"
        }
      ],
      "payable": false,
      "stateMutability": "nonpayable",
      "type": "function"
    }
  ],
  "bytecode": "0x60806040523480156200001157600080fd5b50604051606080620009a7833981018060405262000033919081019062000164565b60008054600160a060020a03808616600160a060020a031992831617928390556001805486831690841617905560028054858316931692909217918290556040517f095ea7b30000000000000000000000000000000000000000000000000000000081529181169263095ea7b392620000b892919091169060001990600401620001d4565b602060405180830381600087803b158015620000d357600080fd5b505af1158015620000e8573d6000803e3d6000fd5b505050506040513d601f19601f820116820180604052506200010e91908101906200013b565b5050505062000227565b600062000126825162000215565b9392505050565b60006200012682516200021a565b6000602082840312156200014e57600080fd5b60006200015c848462000118565b949350505050565b6000806000606084860312156200017a57600080fd5b60006200018886866200012d565b93505060206200019b868287016200012d565b9250506040620001ae868287016200012d565b9150509250925092565b620001c381620001f3565b82525050565b620001c38162000212565b60408101620001e48285620001b8565b620001266020830184620001c9565b6000620002008262000206565b92915050565b600160a060020a031690565b90565b151590565b60006200020082620001f3565b61077080620002376000396000f3fe608060405234801561001057600080fd5b5060043610610068577c0100000000000000000000000000000000000000000000000000000000600035046337ea0de2811461006d57806349f81a20146100965780635aa6e675146100ab5780637b103999146100b3575b600080fd5b61008061007b3660046104c9565b6100bb565b60405161008d91906106b6565b60405180910390f35b61009e61042a565b60405161008d9190610688565b61009e610439565b61009e610448565b60008054604080517fc27cabb500000000000000000000000000000000000000000000000000000000815290518392600160a060020a03169163c27cabb5916004808301926020929190829003018186803b15801561011957600080fd5b505afa15801561012d573d6000803e3d6000fd5b505050506040513d601f19601f82011682018060405250610151919081019061050d565b6002546040517f70a08231000000000000000000000000000000000000000000000000000000008152919250600091600160a060020a03909116906370a08231906101a0903090600401610625565b60206040518083038186803b1580156101b857600080fd5b505afa1580156101cc573d6000803e3d6000fd5b505050506040513d601f19601f820116820180604052506101f0919081019061050d565b9050808211156102e857600254600160a060020a03166323b872dd333061021d868663ffffffff61045716565b6040518463ffffffff167c010000000000000000000000000000000000000000000000000000000002815260040161025793929190610660565b602060405180830381600087803b15801561027157600080fd5b505af1158015610285573d6000803e3d6000fd5b505050506040513d601f19601f820116820180604052506102a991908101906104ef565b6102e8576040517f08c379a00000000000000000000000000000000000000000000000000000000081526004016102df90610696565b60405180910390fd5b6040516060907f0a3b0a4f000000000000000000000000000000000000000000000000000000009061031e908790602401610625565b60408051601f198184030181529181526020820180517bffffffffffffffffffffffffffffffffffffffffffffffffffffffff167fffffffff000000000000000000000000000000000000000000000000000000009094169390931790925260005460015492517fe3c3b200000000000000000000000000000000000000000000000000000000008152919350600160a060020a039081169263e3c3b200926103cf92339216908690600401610633565b602060405180830381600087803b1580156103e957600080fd5b505af11580156103fd573d6000803e3d6000fd5b505050506040513d601f19601f82011682018060405250610421919081019061050d565b95945050505050565b600254600160a060020a031681565b600054600160a060020a031681565b600154600160a060020a031681565b600082821115610493576040517f08c379a00000000000000000000000000000000000000000000000000000000081526004016102df906106a6565b508082035b92915050565b60006104aa82356106d1565b9392505050565b60006104aa82516106e5565b60006104aa82516106e2565b6000602082840312156104db57600080fd5b60006104e7848461049e565b949350505050565b60006020828403121561050157600080fd5b60006104e784846104b1565b60006020828403121561051f57600080fd5b60006104e784846104bd565b610534816106ea565b82525050565b610534816106d1565b600061054e826106c4565b61055881856106c8565b93506105688185602086016106fc565b6105718161072c565b9093019392505050565b610534816106f1565b6000610591602c836106c8565b7f48756d616e6974794170706c6963616e743a3a6170706c79466f723a2054726181527f6e73666572206661696c65640000000000000000000000000000000000000000602082015260400192915050565b60006105f06020836106c8565b7f536166654d6174683a3a7375623a20496e746567657220756e646572666c6f77815260200192915050565b610534816106e2565b60208101610498828461053a565b60608101610641828661052b565b61064e602083018561053a565b81810360408301526104218184610543565b6060810161066e828661052b565b61067b602083018561053a565b6104e7604083018461061c565b60208101610498828461057b565b6020808252810161049881610584565b60208082528101610498816105e3565b60208101610498828461061c565b5190565b90815260200190565b6000600160a060020a038216610498565b90565b151590565b6000610498825b6000610498826106d1565b60005b838110156107175781810151838201526020016106ff565b83811115610726576000848401525b50505050565b601f01601f19169056fea265627a7a72305820302492d7993891d813dae397566a262b1dc2ad916b58404de63d9605e8a768376c6578706572696d656e74616cf50037",
  "source": "pragma solidity 0.5.7;\npragma experimental ABIEncoderV2;\n\nimport { IERC20 } from \"openzeppelin-solidity/contracts/token/ERC20/IERC20.sol\";\nimport { SafeMath } from \"openzeppelin-solidity/contracts/math/SafeMath.sol\";\n\nimport { IGovernance } from \"./interface/IGovernance.sol\";\nimport { IRegistry } from \"./interface/IRegistry.sol\";\n\n\n/**\n * @title HumanityApplicant\n * @dev Convenient interface for applying to the Humanity registry.\n */\ncontract HumanityApplicant {\n    using SafeMath for uint;\n\n    IGovernance public governance;\n    IRegistry public registry;\n    IERC20 public humanity;\n\n    constructor(IGovernance _governance, IRegistry _registry, IERC20 _humanity) public {\n        governance = _governance;\n        registry = _registry;\n        humanity = _humanity;\n        humanity.approve(address(governance), uint(-1));\n    }\n\n    function applyFor(address who) public returns (uint) {\n        uint fee = governance.proposalFee();\n        uint balance = humanity.balanceOf(address(this));\n        if (fee > balance) {\n            require(humanity.transferFrom(msg.sender, address(this), fee.sub(balance)), \"HumanityApplicant::applyFor: Transfer failed\");\n        }\n        bytes memory data = abi.encodeWithSelector(registry.add.selector, who);\n        return governance.proposeWithFeeRecipient(msg.sender, address(registry), data);\n    }\n\n}\n",
  "sourcePath": "/Users/mykel/Developer/marble/humanity/contracts/HumanityApplicant.sol",
  "compiler": {
    "name": "solc",
    "version": "0.5.7+commit.6da8b019.Emscripten.clang"
  },
  "schemaVersion": "3.0.6",
  "updatedAt": "2019-05-24T19:50:59.201Z",
  "devdoc": {
    "details": "Convenient interface for applying to the Humanity registry.",
    "methods": {},
    "title": "HumanityApplicant"
  },
  "userdoc": {
    "methods": {}
  }
}