{
  "contractName": "MockHumanityRegistry",
  "abi": [
    {
      "constant": true,
      "inputs": [],
      "name": "result",
      "outputs": [
        {
          "name": "",
          "type": "bool"
        }
      ],
      "payable": false,
      "stateMutability": "view",
      "type": "function"
    },
    {
      "constant": true,
      "inputs": [
        {
          "name": "who",
          "type": "address"
        }
      ],
      "name": "isHuman",
      "outputs": [
        {
          "name": "",
          "type": "bool"
        }
      ],
      "payable": false,
      "stateMutability": "view",
      "type": "function"
    },
    {
      "constant": false,
      "inputs": [
        {
          "name": "_result",
          "type": "bool"
        }
      ],
      "name": "setResult",
      "outputs": [],
      "payable": false,
      "stateMutability": "nonpayable",
      "type": "function"
    }
  ],
  "bytecode": "0x60806040526000805460ff1916600117905534801561001d57600080fd5b506101b18061002d6000396000f3fe608060405234801561001057600080fd5b506004361061005d577c01000000000000000000000000000000000000000000000000000000006000350463653721478114610062578063f4b4dc2e14610080578063f72c436f14610095575b600080fd5b61006a6100a8565b6040516100779190610140565b60405180910390f35b61009361008e366004610113565b6100b1565b005b61006a6100a33660046100ed565b6100c4565b60005460ff1681565b6000805460ff1916911515919091179055565b5060005460ff1690565b60006100da8235610159565b9392505050565b60006100da8235610154565b6000602082840312156100ff57600080fd5b600061010b84846100ce565b949350505050565b60006020828403121561012557600080fd5b600061010b84846100e1565b61013a81610154565b82525050565b6020810161014e8284610131565b92915050565b151590565b600073ffffffffffffffffffffffffffffffffffffffff821661014e56fea265627a7a72305820b6c8a12e5f307a061215500469b37c86dbc8a30f7eba63bdfab1ee3e2e5f1de56c6578706572696d656e74616cf50037",
  "source": "pragma solidity 0.5.7;\npragma experimental ABIEncoderV2;\n\n\ncontract MockHumanityRegistry {\n\n    bool public result = true;\n\n    function isHuman(address who) public view returns (bool) {\n        return result;\n    }\n\n    function setResult(bool _result) public {\n        result = _result;\n    }\n\n}",
  "sourcePath": "/Users/mykel/Developer/marble/humanity/contracts/mock/MockHumanityRegistry.sol",
  "compiler": {
    "name": "solc",
    "version": "0.5.7+commit.6da8b019.Emscripten.clang"
  },
  "schemaVersion": "3.0.6",
  "updatedAt": "2019-05-24T19:50:59.205Z",
  "devdoc": {
    "methods": {}
  },
  "userdoc": {
    "methods": {}
  }
}