{
  "contractName": "MockUniswap",
  "abi": [
    {
      "constant": true,
      "inputs": [],
      "name": "humanity",
      "outputs": [
        {
          "name": "",
          "type": "address"
        }
      ],
      "payable": false,
      "stateMutability": "view",
      "type": "function"
    },
    {
      "inputs": [
        {
          "name": "_humanity",
          "type": "address"
        }
      ],
      "payable": false,
      "stateMutability": "nonpayable",
      "type": "constructor"
    },
    {
      "constant": false,
      "inputs": [
        {
          "name": "tokens_bought",
          "type": "uint256"
        },
        {
          "name": "timestamp",
          "type": "uint256"
        }
      ],
      "name": "ethToTokenSwapOutput",
      "outputs": [
        {
          "name": "",
          "type": "uint256"
        }
      ],
      "payable": true,
      "stateMutability": "payable",
      "type": "function"
    }
  ],
  "bytecode": "0x608060405234801561001057600080fd5b50604051602080610494833981018060405261002f9190810190610067565b60008054600160a060020a031916600160a060020a03929092169190911790556100b5565b6000610060825161009e565b9392505050565b60006020828403121561007957600080fd5b60006100858484610054565b949350505050565b6000610098826100a9565b92915050565b60006100988261008d565b600160a060020a031690565b6103d0806100c46000396000f3fe608060405260043610610045577c0100000000000000000000000000000000000000000000000000000000600035046349f81a20811461004a5780636b1d4db714610075575b600080fd5b34801561005657600080fd5b5061005f610095565b60405161006c9190610342565b60405180910390f35b6100886100833660046102b5565b6100b1565b60405161006c9190610350565b60005473ffffffffffffffffffffffffffffffffffffffff1681565b600080546040517f70a08231000000000000000000000000000000000000000000000000000000008152829173ffffffffffffffffffffffffffffffffffffffff16906370a0823190610108903090600401610319565b60206040518083038186803b15801561012057600080fd5b505afa158015610134573d6000803e3d6000fd5b505050506040513d601f19601f820116820180604052506101589190810190610297565b6000546040517fa9059cbb00000000000000000000000000000000000000000000000000000000815291925073ffffffffffffffffffffffffffffffffffffffff169063a9059cbb906101b19033908590600401610327565b602060405180830381600087803b1580156101cb57600080fd5b505af11580156101df573d6000803e3d6000fd5b505050506040513d601f19601f820116820180604052506102039190810190610271565b508334111561023d5760405133903486900380156108fc02916000818181858888f1935050505015801561023b573d6000803e3d6000fd5b505b90505b92915050565b6000610252825161037f565b9392505050565b6000610252823561037c565b6000610252825161037c565b60006020828403121561028357600080fd5b600061028f8484610246565b949350505050565b6000602082840312156102a957600080fd5b600061028f8484610265565b600080604083850312156102c857600080fd5b60006102d48585610259565b92505060206102e585828601610259565b9150509250929050565b6102f881610384565b82525050565b6102f88161035e565b6102f88161038b565b6102f88161037c565b6020810161024082846102fe565b6040810161033582856102ef565b6102526020830184610310565b602081016102408284610307565b602081016102408284610310565b600073ffffffffffffffffffffffffffffffffffffffff8216610240565b90565b151590565b6000610240825b60006102408261035e56fea265627a7a72305820115ce66ffd6df9be337fcc7a25c2da1fa2f3670b2f7938153ada76dee7efbec96c6578706572696d656e74616cf50037",
  "source": "pragma solidity 0.5.7;\npragma experimental ABIEncoderV2;\n\nimport { IERC20 } from \"openzeppelin-solidity/contracts/token/ERC20/IERC20.sol\";\n\nimport { IUniswapExchange } from \"../interface/IUniswapExchange.sol\";\n\n\n// @title MockUniswap exchanges Ether for Humanity to test PayableHumanityApplicant.\ncontract MockUniswap is IUniswapExchange {\n\n    IERC20 public humanity;\n\n    constructor(IERC20 _humanity) public {\n        humanity = _humanity;\n    }\n\n    function ethToTokenSwapOutput(uint256 tokens_bought, uint256 timestamp) public payable returns (uint256) {\n        uint balance = humanity.balanceOf(address(this));\n        humanity.transfer(msg.sender, balance);\n\n        // Use a 1-to-1 exchange rate and refund the rest\n        if (msg.value > tokens_bought) {\n            msg.sender.transfer(msg.value - tokens_bought);\n        }\n\n        return balance;\n    }\n\n}",
  "sourcePath": "/Users/mykel/Developer/marble/humanity/contracts/mock/MockUniswap.sol",
  "compiler": {
    "name": "solc",
    "version": "0.5.7+commit.6da8b019.Emscripten.clang"
  },
  "schemaVersion": "3.0.6",
  "updatedAt": "2019-05-24T19:50:59.206Z",
  "devdoc": {
    "methods": {}
  },
  "userdoc": {
    "methods": {}
  }
}