{
  "contractName": "MockTarget",
  "abi": [
    {
      "constant": true,
      "inputs": [],
      "name": "value",
      "outputs": [
        {
          "name": "",
          "type": "uint256"
        }
      ],
      "payable": false,
      "stateMutability": "view",
      "type": "function"
    },
    {
      "constant": false,
      "inputs": [],
      "name": "setValue",
      "outputs": [],
      "payable": false,
      "stateMutability": "nonpayable",
      "type": "function"
    },
    {
      "constant": true,
      "inputs": [],
      "name": "data",
      "outputs": [
        {
          "name": "",
          "type": "bytes"
        }
      ],
      "payable": false,
      "stateMutability": "view",
      "type": "function"
    }
  ],
  "bytecode": "0x608060405234801561001057600080fd5b506101fd806100206000396000f3fe608060405234801561001057600080fd5b506004361061005d577c010000000000000000000000000000000000000000000000000000000060003504633fa4f24581146100625780634fa519fa1461008057806373d4a13a1461008a575b600080fd5b61006a61009f565b6040516100779190610165565b60405180910390f35b6100886100a5565b005b6100926100ac565b604051610077919061014d565b60005481565b6004600055565b6040805160048152602481019091526020810180517bffffffffffffffffffffffffffffffffffffffffffffffffffffffff167f4fa519fa0000000000000000000000000000000000000000000000000000000017905290565b600061011182610179565b61011b818561017d565b935061012b818560208601610189565b610134816101b9565b9093019392505050565b61014781610186565b82525050565b6020808252810161015e8184610106565b9392505050565b60208101610173828461013e565b92915050565b5190565b90815260200190565b90565b60005b838110156101a457818101518382015260200161018c565b838111156101b3576000848401525b50505050565b601f01601f19169056fea265627a7a72305820f84e165a808f55e61fb816c8aa9982bbe10d0a3a4b65c95eb3affe0380135daa6c6578706572696d656e74616cf50037",
  "source": "pragma solidity 0.5.7;\npragma experimental ABIEncoderV2;\n\n\n// @title MockTarget sets a value to test governance.\ncontract MockTarget {\n\n    uint public value;\n\n    function setValue() public {\n        value = 4;\n    }\n\n    function data() public view returns (bytes memory) {\n        return abi.encodeWithSelector(this.setValue.selector);\n    }\n\n}",
  "sourcePath": "/Users/mykel/Developer/marble/humanity/contracts/mock/MockTarget.sol",
  "compiler": {
    "name": "solc",
    "version": "0.5.7+commit.6da8b019.Emscripten.clang"
  },
  "schemaVersion": "3.0.6",
  "updatedAt": "2019-05-24T19:50:59.206Z",
  "devdoc": {
    "methods": {}
  },
  "userdoc": {
    "methods": {}
  }
}